:020000040800F2
:10000000D01200201D4C0008F10D0008F30D00086F
:10001000F70D0008FB0D0008FF0D000800000000B0
:10002000000000000000000000000000030E0008B7
:10003000050E000800000000070E0008090E000869
:10004000374C0008374C0008374C0008374C000884
:10005000374C0008374C0008374C0008374C000874
:10006000374C0008374C0008374C0008374C000864
:10007000374C0008374C0008374C0008374C000854
:10008000374C0008374C0008374C0008374C000844
:10009000374C0008374C0008374C0008374C000834
:1000A000374C0008374C0008374C0008374C000824
:1000B000B32E0008374C0008374C0008374C0008B6
:1000C000374C0008374C0008374C0008374C000804
:1000D000374C0008B1330008612700085D2900088B
:1000E000374C0008374C0008374C0008374C0008E4
:1000F000374C0008374C0008374C0008374C0008D4
:10010000374C0008374C0008E3480008374C00081B
:100110002B4B0008374C0008374C0008374C0008C0
:10012000374C0008374C0008374C0008374C0008A3
:10013000374C0008374C0008374C0008374C000893
:10014000374C0008374C0008374C0008374C000883
:10015000374C0008374C0008374C0008374C000873
:10016000374C0008374C0008374C0008374C000863
:10017000374C0008374C0008374C0008374C000853
:10018000374C0008374C000800F002F800F055F832
:100190000AA090E8000C82448344AAF10107DA45E2
:1001A00001D100F04AF8AFF2090EBAE80F0013F0DF
:1001B000010F18BFFB1A43F00103184744AD0000BC
:1001C00064AD0000103A24BF78C878C1FAD852074D
:1001D00024BF30C830C144BF04680C6070470000C1
:1001E0000023002400250026103A28BF78C1FBD840
:1001F000520728BF30C148BF0B60704766290AF01C
:100200005E84692907F09A84642907F09784782925
:1002100007F0D084632908F0C080002070471FB524
:100220000AF043FC08F0D8F804000020002109F08F
:100230006DFDE0601FBD10B510BD08F0D5F9114689
:10024000FFF7EDFF00F0ECF908F0F3F903B4FFF766
:10025000F2FF03BC04F004FC30B5B3B00020009002
:10026000694601A801F01EFA9DF8000008B933B0F4
:1002700030BD002406E001A8015DFEA007F0EEFB02
:10028000601CC4B29DF800008442F4DBFBA007F0C0
:10029000E5FB9DF804006C2825D19DF8060009288F
:1002A00021D19DF80000401E01A9085C16281AD132
:1002B0009DF80700032816D19DF80800052812D1E3
:1002C000EEA007F0CBFB9DF8001001A801F0B7FFEE
:1002D0000546012D03D1EAA007F0C0FB02E0F2A021
:1002E00007F0BCFB00BF00BFC1E700B5CDB00020E8
:1002F0000190009001A902A802F09EFC9DF8040064
:1003000008B94DB000BD9DF80B00472849D19DF8B4
:100310000C00472845D19DF80D00412841D19DF89A
:10032000100030389DF80F1030390A2212FB0100FE
:10033000C0B28DF800009DF800000830C0B28DF802
:1003400000009DF80000182805DB9DF80000183813
:10035000C0B28DF800009DF800000A2190FBF1F278
:1003600001FB12010A2290FBF2F001EB0010C0B277
:100370008DF800009DF8120030389DF811103039CA
:10038000102212FB0100C0B28DF801009DF814008C
:1003900030389DF81310303912FB0100C0B28DF8CF
:1003A000020000BFADE770B592B0C848057825B926
:1003B0000020C649088012B070BDC54800786C287E
:1003C0000CD1681EC249085C162807D1C1A007F0ED
:1003D00045FB2946BE4801F0BFF81CE1C0A007F06C
:1003E0003DFB002406E0BA48015DC0A007F036FBE3
:1003F000601CC4B2AC42F6DB2946BEA007F02EFB5F
:100400009EA007F02BFBB248007848B9B04840786E
:1004100030B9BBA00068119011A801F05AFAFAE0B7
:10042000AB48007830B9AA484078012802D101F0E1
:10043000BDFAF0E0A6480078A8B9A548407802289F
:1004400011D1002011900026AE48017811A801F0CA
:10045000F4FB06461EB1ACA007F000FB02E0B1A021
:1004600007F0FCFAD7E09A48007820BB984840781B
:10047000032820D1B3A103C9CDE91001B3A103C959
:10048000CDE90E0100260EAA062110A801F06EFE8D
:1004900000240DE001A8015DAE4805F013FC00BF8B
:1004A0004021AC4805F0BEFC0128F9D1601CC4B263
:1004B000B442EFDBAFE08648007890B984484078DA
:1004C00004280ED10026012001F06EFC0646012E04
:1004D00003D1A1A007F0C2FA02E0A4A007F0BEFA7F
:1004E00099E07B48007888B97948407805280DD193
:1004F000002601F017FB0646012E03D1A1A007F04C
:10050000ADFA02E0A7A007F0A9FA84E070480078ED
:1005100088B96F48407806280DD1002602F0C2F84D
:100520000646012E03D1A6A007F098FA02E0ABA080
:1005300007F094FA6FE066480078A8B964484078FC
:10054000072811D1002601F04BF80646012E07D1ED
:1005500041F2883004F05EFAA6A007F07FFA02E0CC
:10056000AAA007F07BFA56E059480078012819D173
:1005700057484078B0B900201190002611A802F029
:100580006CFB0646012E09D19DF846309DF84520AA
:100590009DF84410A3A007F061FA02E0A7A007F0BD
:1005A0005DFA38E04A480078012812D1484840787E
:1005B00001280ED10020119011A802F0CFFF9DF864
:1005C00046309DF845209DF84410A2A007F046FA59
:1005D00021E03F48007801281DD13D48407802289D
:1005E00019D1002011903A4880788DF8440038489D
:1005F000C0788DF84500364800798DF846009DF8A2
:1006000046209DF845109DF8440002F04BFF97A04E
:1006100007F024FA00BF00202C49088000BFCAE67A
:100620002DED0C8BE8B028215EA807F0F2FB4FF00F
:1006300000084FF4A06004F011FBA82004F088F932
:100640004FF4165004F01AFA00F0E8FC00F0F6FD42
:1006500000F086FE02F05FFC02F035FF02F0DEFAE9
:1006600001F0A2FA8749087002F0F2FB01208649E6
:1006700008600BE125303258200000000D0A000010
:100680004C4F524120526563656976652044617420
:100690006120416E616C7973697320537563636582
:1006A00073730D0A000000004C4F524120526563E5
:1006B00065697665204461746120416E616C79736F
:1006C0006973204661696C0D0A000000F400002087
:1006D000A40900204C4F524120434D440D0A000014
:1006E000554152543420434D443A2000253032784D
:1006F000200000000D0A6C656E3D256400000000BE
:1007000011210B00010000204C4F5241204E657416
:10071000776F726B205374617475733A204F4B0D71
:100720000A0000004C4F5241204E6574776F726B87
:10073000205374617475733A204552524F520D0A1A
:10074000000000000003010203040000054901004D
:1007500000000000004C0040536C617665204E6F35
:100760006465204F6E6C696E650D0A00536C61768E
:1007700065204E6F6465204F66666C696E650D0A74
:10078000000000004E6574776F726B2044617461E5
:1007900020436C65617220537563636573730D0A42
:1007A000000000004E6574776F726B2044617461C5
:1007B00020436C656172204661696C0D0A0000007F
:1007C0004E6574776F726B204E616D696E67205352
:1007D0007563636573730D0A000000004E657477DE
:1007E0006F726B204E616D696E67204661696C0D9A
:1007F0000A0000004E6574776F726B20537461724B
:100800007420537563636573730D0A004E657477C6
:100810006F726B205374617274204661696C0D0AAB
:10082000000000004750532054696D653A2025644C
:100830003A25643A25640D0A000000004750532011
:1008400054696D652052656164204661696C0D0ACA
:10085000000000005254432054696D653A2025641D
:100860003A25643A25640D0A0000000052544320E2
:1008700054696D65205365742053756363657373A4
:100880000D0A00002200002090024042F649C1F803
:10089000980203F09DFB03F045FF02F023FF4FF4A5
:1008A000FA7004F0B7F8F1A007F0D8F8DBE1002007
:1008B0005B905C90F1A000685A904FF0000B9FEDA8
:1008C000F00AB0EE408A9FEDEF0A10EE109AB3EEF8
:1008D000090AF0EE408AB3EE090A10EE106A9FEDA5
:1008E000EA0A10EE10AAE948006818B300F0D2FC3A
:1008F00010EE107A5EA840F8287008F1010000F0B0
:10090000FF08B8F10A0F00D1D84600240AE05EA81B
:1009100000EB840090ED000A30EE080AB0EE408A49
:10092000601CC4B20A2CF2DBB2EE040AC8EE000A64
:1009300010EE907A03F06FFF10EE106A30460AF066
:1009400043F841EC1B0B9FEDD20B53EC102B09F03D
:1009500045FD41EC1A0B9FEDD00B53EC102B09F029
:1009600049FF41EC190B09F0F3F9064630460AF04D
:100970002BF841EC1A0B9FEDCA0B53EC102B09F02E
:1009800019FA41EC190B09F0E3F9064603F042FAB3
:10099000B0EE409AF0EE609A51EC190B09F0D8F9DC
:1009A00008EE900A03F066FAB0EE409AF0EE609A14
:1009B00051EC190B09F0CCF9814648460AF004F8CD
:1009C00041EC1B0B9FEDB80B53EC102B09F012FF01
:1009D00041EC1A0B9FEDB60B53EC102B09F0A6FA65
:1009E00041EC190B09F0B4F9814603F01FFF10EE3A
:1009F00010AA504609F0E8FF41EC1B0B9FEDAE0B2F
:100A000053EC102B09F0EAFC41EC1A0B9FEDAC0BF8
:100A100053EC102B09F0CEF941EC190B09F098F9C1
:100A20008246384609F0D0FF41EC190B53EC192BE4
:100A3000A5A007F013F8484609F0C6FF41EC190BD2
:100A400053EC192BA3A007F009F8304609F0BCFFBE
:100A500041EC190B53EC192BA2A006F0FFFF5046F6
:100A600009F0B2FF41EC190B53EC192BA2A006F0D0
:100A7000F5FF00F079FCA44880ED000A006809F059
:100A8000A3FF41EC190B53EC192BA0A006F0E6FFD5
:100A900079A006F0E3FFA248007818B900F086FFBD
:100AA0009F49087001209F4908700846007820B1CE
:100AB00002F064FD00209B4908709B48008800F408
:100AC000004008B1FFF76FFC00F0F4FD08B1FFF73C
:100AD000C3FB02F0B9F808B1FFF707FC93A006F0DA
:100AE000BDFF00246BE0002509E004EB440005EBAA
:100AF00040009249085C5BA94855681CC5B2062DA8
:100B0000F3DB5BAA03215AA801F030FB21468CA03D
:100B100006F0A4FF41F2883003F07CFF002510E0CE
:100B200000F0C8FD38B18CA006F098FFFFF794FBE9
:100B30004FF0010B09E04FF4FA6003F06BFF681C03
:100B4000C5B28A4800788542EADB00BFBBF1000FDE
:100B500000D032E0214686A006F080FF5BAA032188
:100B60005AA801F003FB214675A006F077FF41F279
:100B7000883003F04FFF002510E000F09BFD38B1F6
:100B800075A006F06BFFFFF767FB4FF0010B09E064
:100B90004FF4FA6003F03EFF681CC5B2734800785A
:100BA0008542EADB00BFBBF1000F03D1214678A0EC
:100BB00006F054FF4FF0000B00BF601CC4B27C482D
:100BC000007884428FDB5DA802F0C8FC02F02AFDA9
:100BD0000E904D48006809F0F7FE41EC190B3846BD
:100BE00009F0F2FE41EC1A0B504609F0EDFE41EC23
:100BF0001B0B484609F0E8FE41EC1C0B304609F09F
:100C0000E3FE41EC1D0B0E980C908DED0A9B8DEDD3
:100C100008AB8DED06BB8DED04CB8DED02DB9DF8B1
:100C2000760100909DF875319DF8742161490FA8F7
:100C300006F020FF0FA807F085F85FA006F00EFF72
:100C40000FA807F095F880B201460E900FA802F0A9
:100C50005AF963A006F002FF4FF47A7003F0DAFE4F
:100C600000F0F8F900BF22E6000040424C4F52412C
:100C700020496E6974204F4B0D0A00001122330089
:100C8000000000000050C34700002042980240428C
:100C9000E17A14AE47E1F03FA4703D0AD7A30B40C0
:100CA0009A9999999999D93F0AD7A3703D0AF33F28
:100CB000000000000000594008AC1C5A643BEF3FA4
:100CC0004E62105839341A40736D6F6B653A2025A7
:100CD000660D0A0070726573737572653A20256639
:100CE0000D0A000074656D70657261747572653A05
:100CF0002025660D0A00000068756D6964697479C5
:100D00003A2025660D0A0000080000206261747414
:100D10006572793A20252E326625250D0A000000DD
:100D200022000020A6000020F400002071756572EA
:100D30007920646174612E2E2E0D0A00250000209A
:100D400071756572792073656E742E2E2E6E6F64C8
:100D5000653A2025640D0A00646174612072656340
:100D60006569766564210D0A00000000020000201C
:100D70007175657279206461746120616761696E63
:100D80002E2E2E206E6F64653A2025640D0A000019
:100D900071756572792064617461206661696C6542
:100DA000642E2E2E206E6F64653A2025640D0A0095
:100DB0002400002014AD000873656E64696E67201E
:100DC0006D61696E206E6F6465206461746120746A
:100DD0006F207365727665722E2E2E0D0A0000004C
:100DE000646174612073656E742E2E2E0D0A0000EE
:100DF000704700BFFEE700BFFEE700BFFEE700BF91
:100E0000FEE7704770477047704700000CB5002040
:100E1000019000907648006840F480307449086082
:100E200000BF7348006800F4003000900198401C37
:100E30000190009818B90198B0F5A04FF1D16C4815
:100E4000006800F4003010B10120009001E00020A3
:100E500000900098012846D165484030006840F075
:100E600080506349403108606248006840F4404067
:100E7000604908605E48083000685D4908310860D4
:100E80000846006840F4004008600846006840F4E6
:100E9000A05008605848091F0860081F006840F00B
:100EA0008070091F086000BF5148006800F00070A2
:100EB0000028F9D040F20570504908604C480830CD
:100EC000006820F003004A490831086008460068BD
:100ED00040F00200086000BF45480830006800F09C
:100EE0000C000828F8D10CBD10B54548006840F446
:100EF0007000434908603E48006840F001003C49EA
:100F0000086000203A4908310860394800683D49C6
:100F10000840374908603C48091D0860081F006800
:100F200020F48020091F0860002031490C3108603E
:100F3000FFF76CFF4FF0006031498039086010BD49
:100F400070B500200022022300240221284D08351C
:100F50002D6805F00C0020B1042806D0082834D1F3
:100F600007E02A4D2A4E356033E02A4D284E356081
:100F70002FE01F4D2D1D2D68C5F380541C4D2D1DD8
:100F80002D6805F03F0154B1224DB5FBF1F5184E27
:100F9000361D3668C6F3881605FB06F209E01B4DC0
:100FA000B5FBF1F5124E361D3668C6F3881605FB03
:100FB00006F20F4D2D1D2D68C5F301456D1C6B000C
:100FC000B2FBF3F5124E356003E0104D104E356064
:100FD00000BF00BF064D08352D68C5F303150E4E42
:100FE000705D0B4D2D68C540094E356070BD000029
:100FF000003802400070004008544007003C0240A6
:1010000088ED00E0FFFFF6FE103000240024F4001D
:101010000C00002000127A00100000201CB50121F5
:10102000084604F0E1FB1020009001208DF8040038
:1010300000208DF8060003208DF8050001208DF8B2
:10104000070069460C4804F031F910210A4804F001
:10105000A9F91CBD0948007830B101200849086091
:1010600000200649087005E00020054908600120BD
:101070000249087070470000000002402000002074
:101080009002404200B58BB00121080204F006FC3A
:101090000121080204F057FC00214FF4807004F095
:1010A00052FC002007900A9009904FF4803008907D
:1010B00007A803F07DFE002001908DF808008DF850
:1010C00009000390059001208DF8180001A95948E6
:1010D00003F03FFE0121574803F081FE0BB000BD35
:1010E00000B58DB00121042004F07EFB012108022F
:1010F00004F0D4FB1020019003208DF8080000209C
:101100008DF80B0001A94C4804F0D0F80121080229
:1011100004F019FC00214FF4807004F014FC00204E
:1011200009900C900B904FF480300A9009A803F0BE
:101130003FFE002003908DF810008DF811000590FF
:10114000079001208DF8200003A93A4803F001FE22
:101150000121384803F043FE0DB000BD00B58DB04D
:101160000121042004F040FB0121080204F096FB59
:101170002020019003208DF8080000208DF80B003E
:1011800001A92D4804F092F80121080204F0DBFBCC
:1011900000214FF4807004F0D6FB002009900C90E1
:1011A0000B904FF480300A9009A803F001FE002054
:1011B00003908DF810008DF8110005900790012024
:1011C0008DF8200003A91B4803F0C3FD0121194835
:1011D00003F005FE0DB000BD10B504460723012243
:1011E0002146144803F03BFE124803F094FE00BF72
:1011F0000221104803F0B0FF0028F9D00D4803F099
:10120000C6FE10BD2DE9F04107460C46002500261C
:1012100008E03846FFF7E0FF0544052003F0FAFB3D
:10122000701CC6B2A642F4DBB5FBF4F080B2BDE898
:10123000F081000000200140000802401CB501219F
:10124000084604F0D1FA4020009001208DF80400F7
:1012500000208DF8060003208DF8050001208DF890
:1012600007006946334804F021F84021314804F072
:1012700099F8FFF735FF1CBD012805D101212E4A41
:1012800011602E4A117004E000212B4A11602B4A94
:101290001170704770B52DED0A8B2848007810B991
:1012A0000120FFF7E9FF14210E20FFF7ABFF0546F1
:1012B000284609F043F841EC1A0B9FED210B53EC43
:1012C000102B09F08BF841EC190B08F041FD08EEEA
:1012D000100AB0EE000A28EE000AB0EE408A18EEBE
:1012E000100A09F071FB41EC1C0B9FED170B53EC3E
:1012F000102B09F073F841EC1B0B9FED150B53EC11
:10130000102B09F077FA41EC1A0B9FED130B53ECFD
:10131000102B08F04FFD41EC190B08F0CBFF84B205
:10132000002C00DA002400EE104AB8EE400ABDECB2
:101330000A8B70BD0000024098024042210000204C
:10134000000000000000443FC7711CC77144A54065
:10135000398EE3388E0391400000000000006940A0
:1013600010B5FFF7FBFE10BD30B52DED0E8B83B031
:10137000B7EE000AB0EE409A9FED4B0AB0EE40EA9D
:101380009FED4A0AF0EE40EA9FED490AF0EE409ADE
:101390000F210846FFF736FF0446214645A006F018
:1013A0005DFB00EE104AB8EE400A10EE100A09F09C
:1013B0000BFB41EC1B0B9FED420B53EC102B09F088
:1013C0000DF841EC1A0B08F0C3FC08EE100A18EEF9
:1013D000100A09F0F9FA41EC1A0B53EC1A2B3AA057
:1013E00006F03CFB39EE0E0A20EE080AC0EE090AB0
:1013F000B0EE608A38EE690A3EEEE91AC0EE010AE4
:101400009FED380A20EE800AF0EE408AB2EE040A20
:1014100028EE800A10EE101A084609F0D5FA41ECC1
:101420001D0B9FED310B53EC102B08F0C3FC41EC6E
:101430001C0B08F00FFF054608F069FF41EC1B0B81
:101440009FED2B0B53EC102B08F070FD41EC1A0BA9
:1014500008F07EFC08EE900A18EE900A09F0B4FA43
:1014600041EC1A0B18EE100A09F0AEFA41EC1B0B16
:101470008DED00AB53EC1B2B1FA006F0EFFA9FED98
:10148000190AF4EEC08AF1EE10FA06DD9FED150A96
:10149000F0EE408A25A006F0E1FAB0EE680A03B04B
:1014A000BDEC0E8B30BD0000666696409A994941AE
:1014B000CDCC2C41616463783D25640D0A000000A9
:1014C000000000000000443F6164635F6261747467
:1014D0006572795F7175616E746974793D25660D09
:1014E0000A0000000000C842000000000000E03FC9
:1014F0000000000000002440626174746572795F2E
:101500007175616E746974793D25662C2062617411
:10151000746572795F7175616E746974795F7065F5
:101520007263656E743D25660D0A00006261747415
:101530006572795F7175616E746974795F706572D7
:1015400063656E743E3130302C2073657420746F87
:10155000203130300D0A000070B504460D46294692
:10156000204601F08FF970BDF0B504460E46059D8A
:10157000002005F10A0737706C272754401C6F1DA7
:101580002754401C09272754401C17782754401C17
:1015900057782754401C00272754401C992727546C
:1015A000401C2754471CF8B2002105E05F5C27541B
:1015B000471CF8B24F1CF9B2A942F7DB00272754A9
:1015C000002106E0275C14F801C0674427544F1C33
:1015D000F9B28142F6DB471CF8B216272754F0BD5A
:1015E00070B586B0FEA0006801900025002600249A
:1015F0000020034601AA05A9009002A8FFF7B4FF46
:101600009DF8141002A8FFF7A7FF4FF47A7003F0BB
:1016100001FA0124204606B070BD10B50246FF2035
:10162000002138E001EB8104EE4B13F834301478DC
:10163000A3422ED101EB8104EA4B03EBC4035B7898
:101640005478A34225D101EB8104E64B03EBC4039C
:101650009B789478A3421CD101EB8104E14B03EB0E
:10166000C403DB78D478A34213D101EB8104DD4BB2
:1016700003EBC4031B791479A3420AD101EB810463
:10168000D84B03EBC4035B795479A34201D10846DC
:1016900006E04B1CD9B2D34B1B1F1B788B42C1DC1D
:1016A00000BF10BD70B504460D462946204601F026
:1016B00011F970BDCC48008800F4004008B1012049
:1016C00070470020FCE72DE9F047E8B007460E46DA
:1016D00007EB4700092101EB4000801CC0B2679076
:1016E000C2A000681A904FF00008002011908146B7
:1016F0001E2F02DD68B0BDE8F0878DF86C70002504
:1017000014E000240EE005EB450004EB4000305CE3
:1017100005EB4501012202EB410121441BAA505473
:10172000601CC4B2062CEEDB681CC5B2BD42E8DB0F
:1017300007EB4700012101EB4000C0B21BAB1AAA26
:1017400067A9009041A8FFF70FFF9DF89C1141A8E1
:10175000FFF702FFB9E0FFF7ADFF00287DD04FF49F
:101760007A7003F057F911A912A8FFF79BFF9DF8B3
:101770004B00002872D19DF84C000128FAD1814617
:10178000002488E04FF0FF0A002508E004EB440045
:1017900005EB4000305C0FA94855681CC5B2062D0A
:1017A000F4DB0FA8FFF739FF8246BAF1FF0F70D1C3
:1017B000002508E004EB440005EB4000305C05A97F
:1017C0004855681CC5B2062DF4DB00208DF81A00C0
:1017D0009FED870A8DED070A9FED850A8DED080ABA
:1017E0009FED830A8DED090A9FED810A8DED0B0AAD
:1017F0009FED7F0A8DED0A0A9FED7D0A8DED0C0AA3
:101800008DF8340000218DF835108DF836107549AB
:10181000091F097801EB8102724901EBC2002822FD
:1018200005A906F0C4FA6F48001F0078401C6D49F6
:10183000091F087004EB440016F8100004EB440183
:10184000012202EB4101715C04EB4402022303EB31
:101850004202B25C04EB440301E02AE01FE04FF0D7
:10186000030C0CEB4303F35CCDE90032CDE902102D
:1018700004EB4400042101EB4000335C04EB440022
:10188000052101EB4000325C21465AA006F0E6F843
:1018900000BF601CC4B2BC42FFF674AF08E09DF804
:1018A0004B0028B99DF84C00022801D14FF00009E7
:1018B0000CE008F10100C0B2804601465DA006F0D0
:1018C000CDF8B8F10A0F00DB00E044E700BF48465E
:1018D00010E7F0B591B005460D20109060A00068AB
:1018E0000A90002600200190002700240FE0285DC8
:1018F0000A2190FBF1F201FB1201285D0A2290FB04
:10190000F2F001EB00100BA90855601CC4B2032CC7
:10191000EDDB03200BAB0AAA10A900900CA8FFF77F
:1019200023FE50A006F09AF8002406E00CA8015D02
:101930004EA006F093F8601CC4B29DF840008442AB
:10194000F4DB46A006F08AF89DF840100CA8FFF7DB
:1019500003FE26E04FF47A7003F05CF8FFF7AAFE6E
:10196000A8B101A902A8FFF79DFE9DF80B0028B9B8
:101970009DF80C00012801D1012707E09DF80B001C
:1019800020B99DF80C00022800D100270AE0701C45
:10199000C0B20646014637A006F060F8032E00DB11
:1019A00000E0D7E700BF384611B0F0BDF8B500241D
:1019B0000025002639A006F051F800208DF800001F
:1019C0008DF801008DF802006846FFF782FF04469B
:1019D000214639A006F042F800200249091F75E0AF
:1019E000030300000C0100209E00002002080000FC
:1019F00000000000616464206E6577205375624EBC
:101A00006F6465416464726573735B25645D203D3A
:101A10002025303278202530327820253032782049
:101A200025303278202530327820253032780D0A62
:101A3000000000004C4F52415F4164645F536C6191
:101A400076655F4E6F64653A204E6F207265636500
:101A50006976652C206661696C3D25640D0A00007D
:101A6000020400006D73673A2000000025303278D0
:101A7000200000004C4F52415F496E69745F546909
:101A80006D653A204E6F20726563656976652C201E
:101A90006661696C3D25640D0A0000004C4F52419F
:101AA000206E6574776F726B20696E697420737431
:101AB000617274210D0A0000666C61675F73657462
:101AC0005F74696D653D25640D0A00000870E64984
:101AD000E6480078FFF7F7FD0546012D03D1E4A0A5
:101AE00005F0BCFF04E0E9A005F0B8FF0020F8BD58
:101AF000FFF776FD0646012E03D1EAA005F0AEFF02
:101B000004E0EFA005F0AAFF0020F0E7F2A005F046
:101B1000A5FF43F6982002F07DFFF8A005F09EFF98
:101B20000120E4E730B58FB0FCA000680A900024E3
:101B300000200190002503460AAA0EA900900BA8D8
:101B4000FFF712FD9DF838100BA8FFF705FD26E002
:101B50004FF47A7002F05EFFFFF7ACFDA8B101A967
:101B600002A8FFF79FFD9DF80B0028B99DF80C0017
:101B7000012801D1012507E09DF80B0020B99DF84F
:101B80000C00022800D100250AE0601CC0B2044607
:101B90000146E3A005F062FF032C00DB00E0D7E77D
:101BA00000BF28460FB030BD1CB50024012108201D
:101BB00003F01AFE1020009001208DF80400002090
:101BC0008DF8060003208DF8050001208DF8070030
:101BD0006946DE4803F06AFB1021DC4803F0E2FBB3
:101BE0004FF4165000F0F4FD0020D9490870D9498F
:101BF000087040F2E730D8490880FFF793FF0446A9
:101C0000012C03D1D5A005F029FF0DE0FFF78AFFD5
:101C10000446012C03D1D1A005F020FF04E0D7A099
:101C200005F01CFF00201CBD4FF47A7002F0F2FE9C
:101C3000FFF7BCFE04462046F5E72DE9F04F95B0CE
:101C400005460F4608240A201490D3A0006810907F
:101C50004FF000084FF000090020029082468346B2
:101C60000190034610AA14A9009011A8FFF77CFC6C
:101C70009DF8501011A8FFF76FFC8FE04FF47A70B9
:101C800002F0C8FEFFF716FD00287AD002A903A8CB
:101C9000FFF708FD03ABA21C985CC21700EB1272A1
:101CA0001211A0EB02130DF10C0CA21C1CF8021077
:101CB000CA1701EB1272121102EB820203EB42020D
:101CC0002A7003ABE21C985CC21700EB127212116F
:101CD000A0EB0213E21C1CF80210CA1701EB1272EF
:101CE000121102EB820203EB42026A7003AB221D67
:101CF000985CC21700EB12721211A0EB0213221DA6
:101D00001CF80210CA1701EB1272121102EB8202C8
:101D100003EB4202AA7003A9A01D11F800A0E01D68
:101D200011F800B00830085C0190002F25D09BA06E
:101D300005F094FE002607E003A8815DAFF2D420F1
:101D400005F08CFE701CC6B29DF808008642F3DBDD
:101D500053A005F083FEAB786A78297892A005F04D
:101D60007DFE514696A005F079FE59469AA005F0F1
:101D700075FE9EA0019905F071FE4FF001090EE07D
:101D8000FFE708F1010000F0FF081FB141469CA0E9
:101D900005F064FEB8F1050F00DB00E06EE700BF60
:101DA000484615B0BDE8F08F2DE9F0439FB00646D8
:101DB0000825A0A0006818904FF002094FF0000815
:101DC000002009908DF85C008DF85D0017AB18AA13
:101DD0001EA919A8CDF80090FFF7C6FB9DF8781052
:101DE00019A8FFF7B9FBC0E14FF47A7002F012FEB8
:101DF000FFF760FC002835D009A90AA8FFF752FCBC
:101E0000BEB19DF824108CA005F028FE8FA005F02F
:101E100025FE002406E00AA8015D90A005F01EFE44
:101E2000601CC4B29DF824008442F4DB1CA005F0C1
:101E300015FE0AA8405D8DF820000AA9681C085C00
:101E40008DF82100A81C0F5C002E0CD09DF82120DD
:101E50009DF8200002EB00213A4681A005F0FEFD2E
:101E600000246FE174E16FE12500002024000020D0
:101E700041646420736C617665206E6F64652073C5
:101E8000756363657373210D0A000000416464206B
:101E9000736C617665206E6F6465206661696C2184
:101EA0000D0A00004E6574776F726B207374617257
:101EB000742073756363657373210D0A000000005D
:101EC0004E6574776F726B207374617274206661F3
:101ED000696C210D0A0000004C4F5241206E657460
:101EE000776F726B20696E69742077616974203135
:101EF00035207365636F6E64730D0A004C4F524159
:101F0000206E6574776F726B20696E6974207375CB
:101F10006363657373210D0A000000000202000074
:101F20004C4F52415F4E6574776F726B5F436C65C7
:101F300061723A204E6F20726563656976652C2068
:101F40006661696C3D25640D0A000000000C0240CA
:101F50000801002022000020A40000204E657477B4
:101F60006F726B204461746120436C656172205311
:101F70007563636573730D0A000000004E65747726
:101F80006F726B204461746120436C6561722046FE
:101F900061696C0D0A000000010100007265636553
:101FA0006976653A2000000074696D653A20253035
:101FB00032643A253032643A253032640D0A00002A
:101FC0006E6574776F726B5F7374617475733A20AA
:101FD00025640D0A00000000746F74616C5F6E75FB
:101FE0006D6265723A2025640D0A00006F6E6C699F
:101FF0006E655F6E756D6265723A2025640D0A002C
:102000004C4F52415F51756572795F4E6574776FC1
:10201000726B5F5374617475733A204E6F207265F2
:1020200063656976652C206661696C3D25640D0ADF
:102030000000000001020000726563656976655F5B
:102040006C656E3A2025640D0A00000072656365B8
:102050006976655F6275663A200000002578200089
:1020600073746172745F6E756D3A2025642C206301
:10207000757272656E745F706167655F6E756D3ADB
:102080002025640D0A00000004EB840105F10C001A
:1020900000EB41000AA9085C04EB840205F10B0186
:1020A00001EB42010AAA515C04EB840305F10A0228
:1020B00002EB43020AAB9A5C04EB840C05F10903C2
:1020C00003EB4C030DF1280C1CF80330CDE903326F
:1020D000CDE9051004EB8401E81C00EB41000AA9DE
:1020E000095C04EB8402281D00EB42000AAA105C84
:1020F00004EB84036A1D02EB43020AAB9A5C04EB17
:10210000840CCDE900200291A81D00EB4C009C46F8
:102110001CF8003004EB840CE81D00EB4C000DF1C2
:10212000280C1CF8002004EB840C05F1080000EBDF
:102130004C000DF1280C1CF80010FE4805F08EFC38
:10214000601CC4B2BC429FDB01201FB0BDE8F0831D
:1021500008F10100C0B280460146F7A005F07EFC00
:10216000B8F10A0F01DB0020EFE73DE62DE9F04F63
:10217000E7B007460E469046002406F11500C0B2AF
:102180006690FAA00068339006F10B0000F0FF099A
:10219000A246A346002507E018F8050001A9085546
:1021A000601CC4B2681CC5B2062DF5DB002001A975
:1021B0000855601CC4B270200855601CC4B2B01C25
:1021C0000855601CC4B2002506E0785D01A90855D9
:1021D000601CC4B2681CC5B2B542F6DB0D222046B5
:1021E000611CCCB201A90A540A222046611CCCB25F
:1021F00001A90A5401AB33AA66A934A8CDF800900E
:10220000FFF7B2F9DAA005F029FC002507E034A8B1
:10221000415DAFF2A87005F021FC681CC5B29DF8C5
:1022200098018542F3DBAFF2883005F017FC9DF88A
:10223000981134A8FFF790F967B0BDE8F08F2DE949
:10224000F04F2DED0E8BADF50B7D064600206F9007
:10225000FF256E906D906C906B906A90699068907D
:1022600067909FEDCB0A10EE109A9FEDC90A10EE11
:1022700010AA9FEDC70A10EE10BA9FEDC50A8DEDAA
:102280001B0A9FEDC30A8DED1A0A9FEDC10A8DED61
:10229000190A9FEDBF0A8DED180A002406E004F12B
:1022A0000800305C89A90855601CC4B2062CF6DB16
:1022B000377C002406E004F11100305C70A9085559
:1022C000601CC4B2BC42F6DB9DF824029DF82512C6
:1022D0009DF82622CDE90207CDE900219DF827329D
:1022E0009DF828229DF82912AAA005F0B7FB00242A
:1022F00007E070A8015DAFF29C2005F0AFFB601C09
:10230000C4B2BC42F5DBAFF2684005F0A7FB6EA893
:1023100001F024F99DF8BA319DF8B9219DF8B81162
:10232000AFF27C3005F09AFB00206F90002428E08B
:1023300070A8005D6BA90855201D70A9085C6AA9EA
:10234000085504F1080070A9085C69A9085504F152
:102350000C0070A9085C6DA9085504F1100070A963
:10236000085C6CA9085504F1140070A9085C68A900
:10237000085504F1180070A9085C67A90855601C8D
:10238000C4B2042CD4DB9DED6D0A10EE109A9DEDC5
:102390006C0A10EE10AA9DED6B0A10EE10BA9DEDBE
:1023A0006A0A8DED1B0A9DED690A8DED1A0A9DEDF5
:1023B000680A8DED190A9DED670A8DED180A01F086
:1023C00031F98046189808F0FFFA41EC180B19987B
:1023D00008F0FAFA41EC190B504608F0F5FA41EC16
:1023E0001A0B484608F0F0FA41EC1B0B1A9808F05B
:1023F000EBFA41EC1C0B1B9808F0E6FA41EC1D0BC4
:10240000584608F0E1FA41EC1E0BCDF858808DEDEE
:10241000148B8DED129B8DED10AB8DED0EBB8DED04
:102420000CCB8DED0ADB8DED08EB9DF8BA019DF824
:10243000B9219DF8B8119DF82432CDE90331CDE9D9
:1024400005209DF825029DF826129DF82722CDE94A
:10245000002102909DF828329DF829225B491CA892
:1024600005F008FB1CA805F06DFC1CA805F080FC1D
:102470000146179056A005F0F1FA5AA005F0EEFAC1
:102480001CA805F075FC80B2014617901CA800F04E
:102490003AFD5BA005F0E2FA89A8FFF7BEF8054611
:1024A000FF2D34D1002405E089A8005D0EA9085550
:1024B000601CC4B2062CF7DB5549097801EB810298
:1024C0005349091D01EBC20028220EA905F06FFC3B
:1024D0004F480078401C4E490870084600789DF827
:1024E00024229DF825129DF82632CDE90031CDE950
:1024F00002209DF827329DF828229DF82912454890
:1025000005F0ACFA42480078401EC5B200BF05EBAA
:1025100085013F48001D00EBC100C0F8089005EBA5
:1025200085013B48001D00EBC100C0F80CA005EB85
:10253000850171E0B4AE00084C4F52415F517565A2
:1025400072795F536C6176655F4E6F64655F53743B
:10255000617475733A204E6F2072656365697665A4
:102560002C206661696C3D25640D0A00030500009E
:102570004C4F52415F444154415F5472616E7366E7
:1025800065725F73656E645F6D73673A200D0A0054
:1025900000000000616464726573733A2025303274
:1025A000782530327825303278253032782530322F
:1025B00078253032782C20646174615F6C656E3AE6
:1025C0002025642C20646174613A200000AE00086C
:1025D000646174615F737472206C656E3A25640D7A
:1025E0000A00000073656E64696E6720646174613F
:1025F00020746F207365727665722E2E2E0D0A0080
:10260000646174612073656E742E2E2E0D0A0000B5
:1026100008010020BCAD0008434800EBC100C0F831
:1026200010B005EB8502404901EBC2011B984861DF
:1026300005EB85023C4901EBC2011A98886105EB64
:102640008502394901EBC2011998C8619DF8B8119A
:1026500005EB8502344800EBC20080F820109DF89D
:10266000B91105EB8502304800EBC20080F821105B
:102670009DF8BA1105EB85022B4800EBC20080F8EB
:1026800022102A48018805EB8502274800EBC2008A
:10269000818401206F906F980DF50B7DBDEC0E8B42
:1026A000BDE8F08F30B58FB021A000680A900024FB
:1026B00000200190002503460AAA0EA900900BA84D
:1026C000FEF752FF9DF838100BA8FEF745FF26E0F5
:1026D0004FF47A7002F09EF9FEF7ECFFA8B101A961
:1026E00002A8FEF7DFFF9DF80B0028B99DF80C004B
:1026F000012801D1012507E09DF80B0020B99DF8C4
:102700000C00022800D100250AE0601CC0B204467B
:10271000014608A005F0A2F90A2C00DB00E0D7E78B
:1027200000BF28460FB030BD0C010020A4000020DF
:10273000030100004C4F52415F4E6574776F726B1E
:102740005F4E616D696E673A204E6F2072656365FA
:102750006976652C206661696C3D25640D0A000070
:1027600070B540F22551794803F072FB78B3774891
:1027700003F0ACFAC4B27648008800F4004030BBE5
:1027800073480088C0F30D0072490C5470480088EB
:10279000401C6F49088008460088C0F30D000228DD
:1027A00015DB6C484078401DC5B208460088632898
:1027B00001DD0020088066480088C0F30D00A842B3
:1027C00005D16348008840F400406149088070BD2D
:1027D00010B588B004460121082003F005F8012156
:1027E000480403F04AF8072205215B4802F0E9FD9E
:1027F00007220621584802F0E4FD602006900220DE
:102800008DF81C008DF81D0000208DF81E000120A1
:102810008DF81F0006A9504802F048FD02944FF4BD
:102820008050ADF80C000020ADF80E004FF4806031
:10283000ADF810000020ADF814000C20ADF8120027
:1028400002A9424803F08BF90121404803F00FFA36
:1028500040213E4803F0F3FA012240F225513B4863
:1028600003F0BBFA26208DF8040003208DF8050044
:102870008DF8060001208DF8070001A802F0F3F999
:1028800008B010BD70B505460E4600240CE0295D69
:102890002E4803F017FA00BF40212C4803F0C2FA7B
:1028A0000128F9D1601CC4B2B442F0DB70BD10B590
:1028B00004460BE02178254803F004FA00BF80218C
:1028C000224803F0AFFA0028F9D0641C20780028D1
:1028D000F0D110BD2DE9F04107460C4600251C48FB
:1028E00006780A2002F096F8002E10DD00BF06E000
:1028F0001848405D217829447854681CC5B2B54217
:10290000F6DB207830442070002011490880BDE8B3
:10291000F08170B506460D460024002028700A207C
:1029200002F078F80A48008800280DDD00BF04E0B6
:102930000848005D3055601CC4B2054800888442D8
:10294000F6DB03480078287070BD704700440040F3
:102950009E000020BC050020000C024070B540F233
:102960002551A64803F074FA002841D0A34803F08B
:10297000ADF9C4B2A248008800F40040002878D124
:102980009F48008808B9A02C03D09E480078A02852
:102990002FD19B480088C0F30D009A490C549848E9
:1029A0000088401C9649088008460088C0F30D0046
:1029B000042867DB9348C078924989784FF4807285
:1029C00012FB0100C01D85B28D480088B0F5967FCE
:1029D00002DB00208A49088089480088C0F30D0086
:1029E000A8424FD18648008840F4004084490880BE
:1029F00048E08348008800F4804090B10A2C03D05E
:102A000000207F4908803DE07D480088C0F30D002C
:102A10007C490C547A48008840F40040784908808A
:102A200030E00D2C11D17648008840F48040744984
:102A3000088008460088C0F30D0072490C547048A5
:102A40000088401C6E4908801CE06D480088C0F377
:102A50000D006C490C546A480088401C6849088085
:102A600008460088B0F5967F0CDB0020088009E05E
:102A7000FFE7002062490880624804700846008829
:102A8000401C088070BD10B588B0044601210820A4
:102A900002F0AAFE0121880402F0EFFE07220821BD
:102AA000594802F08EFC07220921574802F089FCA0
:102AB0004FF44070069002208DF81C008DF81D0028
:102AC00000208DF81E0001208DF81F0006A94E4839
:102AD00002F0ECFB02940020ADF80C00ADF80E0003
:102AE000ADF81000ADF814000C20ADF8120002A9EA
:102AF000424803F034F80121404803F0B8F840217F
:102B00003E4803F09CF9012240F225513B4803F076
:102B100064F927208DF8040003208DF805008DF856
:102B2000060001208DF8070001A802F09CF808B00B
:102B300010BD70B505460E4600240CE0295D2F48F7
:102B400003F0C0F800BF40212C4803F06BF90128C6
:102B5000F9D1601CC4B2B442F0DB70BD10B50446BC
:102B60000BE02178254803F0ADF800BF8021234811
:102B700003F058F90028F9D0641C20780028F0D11F
:102B800010BD2DE9F04107460C4600251C4806788B
:102B90000A2001F03FFF002E10DD00BF06E01948BB
:102BA000405D217829447854681CC5B2B542F6DBF3
:102BB000207830442070002011490880BDE8F08161
:102BC00070B506460D460024002028700A2001F04A
:102BD00021FF0B48008800280DDD00BF04E00948F4
:102BE000005D3055601CC4B2054800888442F6DBA5
:102BF00003480078287070BD70470000004800400E
:102C0000A000002084060020000C024070B504469D
:102C10000D4629462046FFF78CFF70BD1FB572A3F5
:102C20000FCB8DE80F004FF41640FFF72CFF10215B
:102C30006846FFF7EBFF1FBD70B504460D462946F9
:102C40002046FFF79EFF70BD6B48008800F40040EF
:102C500008B1012070470020FCE72DE9F043CDB01A
:102C60000446002001900026002580468146BAE0F7
:102C700062A004F0F3FEFFF7E7FF30B163A004F0B9
:102C8000EDFE01A902A8FFF7D7FF9DF8041064A08C
:102C900004F0E4FE002706E002A8C15D64A004F091
:102CA000DDFE781CC7B29DF804008742F4DB56A015
:102CB00004F0D4FE9DF8040060B9701CC6B2032E67
:102CC00003DD00204DB0BDE8F08340F2DC5001F0A0
:102CD000A1FE88E09DF80B00472807D19DF80C0065
:102CE000472803D19DF80D0041280FD09DF808001A
:102CF00024286BD19DF80C00482867D19DF80D0061
:102D0000472863D19DF80E0041285FD19DF80B0044
:102D1000472809D19DF80C00472805D19DF80D00E2
:102D2000412801D1002500E0012505F1080002A994
:102D3000085C3038E91D02AA515C30390A2212FBC6
:102D4000010020702078083020702078182802DBDD
:102D500020781838207005F10A0002A9085C303884
:102D600005F1090102AA515C30390A2212FB010067
:102D7000607005F10C0002A9085C303805F10B0108
:102D800002AA515C30390A2212FB0100A07005F141
:102D90002B0002A9085C303800F0FF089DF83600CF
:102DA0002844303805F12D0102AA515C30390A223D
:102DB00012FB010000F0FF09B8F1000F04D11DA0C3
:102DC00004F04CFE02207DE701207BE7002001900B
:102DD000701CC6B20A2E01DD002073E74FF4FA60C2
:102DE00001F018FE00BF43E7A0A1000908010000A0
:102DF0000000000001080D0AA00000204750535FAA
:102E00006765745F74696D650D0A000063686563CA
:102E10006B5F4750535F526563656976650D0A00C5
:102E20007265635F6C656E3A2025690D0A000000CB
:102E300025630000475053205175616C69747920F7
:102E4000697320696E76616C69640D0A0000000088
:102E50001FB51C208DF8000001208DF80300032011
:102E60008DF801008DF802001B48029042F2CF005D
:102E7000ADF804000020ADF80600ADF80C0001210B
:102E8000084602F0FAFC01A94FF0804003F0D7F8A1
:102E90004FF4A06001F0E2FE684601F0E4FE01227A
:102EA0001146900703F06CFD0121880703F050F9EB
:102EB0001FBD10B50121880703F079FD38B101204D
:102EC0000649087006480078401C05490870012131
:102ED000880703F07DFD10BD7F4F1200A600002083
:102EE0002300002070B504460D462946204600F018
:102EF0009FFA70BDA248008800F4004008B101208C
:102F000070470020FCE770B504460D462946204670
:102F100000F079FA70BD70B5A6B09AA2D2E901317D
:102F20001068D268CDE923312592229099A3D3E984
:102F30000020D3E902131FAC0BC41E92242299A1D6
:102F400015A804F034FF14229FA110A804F02FFF4D
:102F5000A2A103C9CDE90E01A2A207CA0BAB07C308
:102F6000A3A103C9CDE90901002000900025002498
:102F700000264FF4165000F0C9F947F2305001F026
:102F800049FD002000907E4908800D2122A8FFF70E
:102F9000BAFF99A004F062FD4FF4FA6001F03AFD27
:102FA000FFF7A8FF80B1694601A8FFF79BFF00BFAC
:102FB00006E001A8015D96A004F050FD601CC4B2BB
:102FC0009DF800008442F4DB002000900D211EA833
:102FD000FFF799FF8FA004F041FD4FF4FA6001F074
:102FE00019FDFFF787FF80B1694601A8FFF77AFF57
:102FF000002406E001A8015D85A004F02FFD601CFF
:10300000C4B29DF800008442F4DB0020009021212E
:1030100015A8FFF778FF85A004F020FD4FF4FA60B3
:1030200001F0F8FCFFF766FF80B1694601A8FFF7E1
:1030300059FF002406E001A8015D75A004F00EFD13
:10304000601CC4B29DF800008442F4DB00200090B4
:10305000142110A8FFF757FF40F6B83001F0DAFC52
:10306000FFF748FF80B1694601A8FFF73BFF002446
:1030700006E001A8015D66A004F0F0FC601CC4B28B
:103080009DF800008442F4DB002000903C49088059
:103090006DA004F0E3FC31E008210EA8FFF733FF38
:1030A00040F6B83001F0B6FCFFF724FF00B36946E4
:1030B00001A8FFF717FF002406E001A8015D54A056
:1030C00004F0CCFC601CC4B29DF800008442F4DB28
:1030D0009DF80000062802DD002000900FE0681C2B
:1030E000C5B2294661A004F0B9FC0020009002E0BE
:1030F00064A004F0B3FC0A2D00DB00E0CCE700BFC5
:10310000002500201E49088064A004F0A7FC2FE0E1
:103110000B210BA8FFF7F7FE40F6B83001F07AFC60
:10312000FFF7E8FEF0B1694601A8FFF7DBFE0024D7
:1031300006E001A8015D36A004F090FC601CC4B25A
:103140009DF800008442F4DB002000909DF80C0004
:10315000312800D10DE0681CC5B229465AA004F000
:103160007DFC02E047A004F079FC0A2D00DB00E0C2
:10317000CEE700BF5CA004F071FC26B070BD00007B
:10318000A200002041542A574B4D4F44453D39235E
:103190000D00000041542A524547504B473D35230E
:1031A0000D00000041542A534552564552313D30DE
:1031B0002C3132312E33362E31382E3136342C31FB
:1031C000383833230D00000041542A4D51505542E8
:1031D0003D74657374746F706963230D41542A43A1
:1031E00053513F0D41542A4753544154453F0D001C
:1031F0007465737464617461636F6E666967207768
:103200006F726B206D6F64652E2E2E0D0A0000000C
:1032100025630000636F6E666967207265672070C2
:1032200061636B6167652E2E2E0D0A00636F6E66FB
:1032300069672063656E7465722073657276657266
:103240002E2E2E0D0A000000636865636B207369E3
:103250006D2063617264207369676E616C207175A3
:10326000616C6974792E2E2E0D0A00007369676EE9
:10327000616C207765616B21206661696C3D256416
:103280000D0A00003447206D6F64756C65206E6F09
:103290002072656365697665210D0A006368656360
:1032A0006B20696620636F6E6E656374656420775A
:1032B0006974682063656E746572207365727665E3
:1032C000722E2E2E0D0A0000736572766572206EC6
:1032D0006F7420636F6E6E65637465642120666130
:1032E000696C3D25640D0A003447206D6F64756C70
:1032F0006520696E697469616C73207375636365B9
:10330000737366756C6C79210D0A000010B588B076
:1033100004460121084602F067FA0121102002F05C
:10332000BDFA07220921524802F04BF807220A2170
:103330004F4802F046F84FF4C060069002208DF826
:103340001C008DF81D0000208DF81E0001208DF856
:103350001F0006A9464801F0A9FF02940020ADF81D
:103360000C00ADF80E00ADF81000ADF814000C2004
:10337000ADF8120002A93F4802F0F1FB01213D48DF
:1033800002F075FC012240F225513A4802F025FD79
:1033900025208DF8040003208DF805008DF8060027
:1033A00001208DF8070001A801F05DFC08B010BDF8
:1033B00010B540F225512F4802F04AFD10B32D48B8
:1033C00002F084FCC4B22C48008800F40040C8B964
:1033D00029480088C0F30D0028490C54264800886D
:1033E000401C254908800D2C05D10846008840F472
:1033F0000040088006E020480088C72802DD002041
:103400001D49088010BD70B505460E4600240CE02D
:1034100000BF4021174802F005FD0028F9D0295DC2
:10342000144802F04FFC601CC4B2B442F0DB70BD23
:103430002DE9F04107460C4600250F4806780A2082
:1034400001F0E8FA002E10DD00BF06E00B48405DF9
:10345000217829447854681CC5B2B542F6DB20783F
:1034600030442070002004490880BDE8F08100004D
:103470000000024000100140A2000020DC080020F3
:10348000F8B504460D4616461F468DF800708DF8B7
:1034900001508DF802608DF803406946002003F06A
:1034A00029FEF8BDF8B506460C46154600208DF8F5
:1034B00003008DF800608DF801408DF802506946D8
:1034C00003F07AFDF8BD3EB541F6FF7440F2E730F7
:1034D000594908800020594908700121080702F065
:1034E000CCF9012003F05BFB002004F0C1F945F2A8
:1034F0005001884230D0012002F013F804E0601C33
:1035000084B20A2001F086FA412001F0C3FF0028AE
:10351000F5D00CB900203EBD4FF4807002F002F9E6
:10352000012002F01AF97F200190FF200290002074
:103530000090684603F0A5FC002211461046FFF7F4
:10354000B1FF01230A2204211720FFF799FF45F25A
:103550005001002004F07FF90120DCE738B5044673
:103560006946002003F092FD9DF8000020709DF850
:10357000010060709DF80200A07038BD08B52E48AB
:1035800001882FA004F06AFA2B480088401C2A49C1
:10359000088008460088B0F57A7F02DB40F2E73009
:1035A0000880254800880C283ADB2AA004F056FA47
:1035B0006846FFF752FB2E490870084601782DA097
:1035C00004F04CFA2A480078012803D12EA004F018
:1035D00045FA13E02648007802280AD12FA004F00B
:1035E0003DFA1548008840F2E731884206DA0020AB
:1035F00008BD32A004F032FA0020F9E79DF802205D
:103600009DF801109DF80000FFF74CFF30A004F07A
:1036100025FA17480078012802D1002006490880C1
:103620000120E5E70448008840F2E731884201D1F3
:10363000002070470120FCE7A4000020A600002025
:103640006C6173745F74696D655F6770733D256449
:103650000D0A000054727920746F2067657420741D
:10366000696D652066726F6D20475053210D0A0009
:10367000A7000020666C61675F6765745F74696DA1
:10368000653D25640D0A00004765742074696D6509
:103690002073756363657373210D0A004765742099
:1036A00074696D65206661696C2C206E6F20736192
:1036B00074656C6C697465210D0A0000476574209F
:1036C00074696D65206661696C210D0A0000000057
:1036D0005365742074696D652073756363657373D6
:1036E000210D0A001CB501AB0122D021762000F08B
:1036F000B4FD642001F0AAF99DF8040058280ED109
:10370000B622E021762000F084FD4B22F4217620C1
:1037100000F07FFDE422F521762000F07AFD6420A0
:1037200001F094F901AB0122D021762000F095FD43
:10373000642001F08BF90DF101030122882176202C
:1037400000F08BFD6B4601228921762000F085FD7B
:103750009DF801009DF8001040EA0120FE49088014
:10376000642001F073F90DF1010301228A21762012
:1037700000F073FD6B4601228B21762000F06DFD79
:103780009DF801009DF8001040EA012000B2F349C5
:103790000880642001F05AF90DF1010301228C2107
:1037A000762000F05AFD6B4601228D21762000F034
:1037B00054FD9DF801009DF8001040EA012000B280
:1037C000E7490880642001F041F90DF1010301226D
:1037D0008E21762000F041FD6B4601228F2176205C
:1037E00000F03BFD9DF801009DF8001040EA01202B
:1037F000DC490880642001F029F90DF10103012260
:103800009021762000F029FD6B460122912176203F
:1038100000F023FD9DF801009DF8001040EA012012
:1038200000B2D1490880642001F010F90DF10103C4
:1038300001229221762000F010FD6B460122932197
:10384000762000F00AFD9DF801009DF8001040EA86
:10385000012000B2C5490880642001F0F7F80DF19D
:10386000010301229421762000F0F7FC6B4601222F
:103870009521762000F0F1FC9DF801009DF80010E4
:1038800040EA012000B2BA490880642001F0DEF865
:103890000DF1010301229621762000F0DEFC6B463B
:1038A00001229721762000F0D8FC9DF801009DF8B8
:1038B000001040EA012000B2AE490880642001F007
:1038C000C5F80DF1010301229821762000F0C5FC16
:1038D0006B4601229921762000F0BFFC9DF8010083
:1038E0009DF8001040EA012000B2A349088064203E
:1038F00001F0ACF80DF1010301229A21762000F0CD
:10390000ACFC6B4601229B21762000F0A6FC9DF8C2
:1039100001009DF8001040EA012000B2974908809C
:10392000642001F093F80DF1010301229C2176201F
:1039300000F093FC6B4601229D21762000F08DFC67
:103940009DF801009DF8001040EA012000B28C496A
:103950000880642001F07AF80DF1010301229E2114
:10396000762000F07AFC6B4601229F21762000F041
:1039700074FC9DF801009DF8001040EA012000B29F
:10398000804908801CBD30B52DED108B85B00446F4
:103990007248B0F9000006F0BAFC41EC1D0B6E480D
:1039A000008806F0CBFC41EC1E0B9FED770B53EC2F
:1039B000102B06F0BBFA41EC1C0B204606F0A7FCCE
:1039C00041EC1E0B9FED720B53EC102B06F0AEFA80
:1039D00041EC1B0B53EC1C2B06F00CFF41EC1A0BBB
:1039E00053EC1D2B06F0FAFC41EC180B5C48B0F9C7
:1039F000000006F08CFC41EC1A0B5748008806F0DA
:103A00009DFC41EC1F0B9FED640B53EC102B06F05B
:103A10008DFA41EC1D0B204606F079FC41EC1F0BA2
:103A20009FED5F0B53EC102B06F080FA41EC1E0B60
:103A300053EC1D2B06F0DEFE41EC1B0B46480088C4
:103A400006F07CFC41EC1F0B9FED530B53EC102B4D
:103A500006F06CFA41EC1D0B204606F058FC41ECD8
:103A60001F0B9FED4F0B53EC102B06F05FFA41EC50
:103A70001E0B53EC1D2B06F0BDFE41EC1C0B53EC52
:103A80001B2B06F0ABFC53EC1A2BCDE900019DED8E
:103A9000000B51EC100B06F0A1FC41EC190B53ECA0
:103AA000192B51EC180B06F085F941EC1A0B06F0B6
:103AB000D1FB054606F02BFC3B4A03C253EC192B05
:103AC00051EC180B06F076F941EC1A0B9FED370B11
:103AD00053EC102B06F02AFACDE902019DED020B02
:103AE00005B0BDEC108B30BD10B52DED108B82B044
:103AF00004469FED300B53EC102B2B4890ED000B40
:103B000051EC100B06F012FA41EC1B0B9FED2B0B46
:103B100053EC102B06F06EFE41EC180B1648B0F972
:103B2000000006F0F4FB41EC1C0B53EC182B51EC9D
:103B3000180B06F053FC41EC1D0B53EC1C2B06F04C
:103B40004DFC41EC1B0B9FED1F0B53EC102B06F0B3
:103B5000EDF941EC1A0B39E0A8000020AA00002082
:103B6000AC000020AE000020B0000020B200002019
:103B7000B4000020B6000020B8000020BA000020E9
:103B8000BC000020BE0000200000000000009040AB
:103B9000000000000000D040000000000000C04015
:103BA0000000000000000041C000002000000000F4
:103BB0000000B440000000000000004000000000D1
:103BC0000040EF40000000000000E040DE48B0F997
:103BD000000006F09CFB41EC1D0B53EC182B06F08B
:103BE000FDFB41EC1C0B1FED0D0B53EC102B06F0F5
:103BF000F5FB41EC1B0B53EC1A2B06F0DBF841EC08
:103C00001A0BD248B0F9000006F081FB41EC1D0B05
:103C10009FEDCF0B53EC102B06F0E0FB41EC1B0BA0
:103C20009FEDCD0B53EC102B51EC1A0B06F07EF9E7
:103C300041EC1C0B53EC1B2B06F0BCF841EC1A0BAF
:103C4000C748B0F9000006F062FB41EC1D0B53ECD5
:103C5000182B06F0C3FB41EC1B0BC248B0F9000067
:103C600006F055FB41EC1F0B53EC182B06F0B6FB8E
:103C700041EC1E0B53EC182B06F0B0FB41EC1D0B76
:103C80009FEDB90B53EC102B06F050F941EC1C0BD7
:103C900053EC1B2B06F08EF89FEDB30B53EC102B5F
:103CA000CDE900019DED000B51EC100B06F03EF943
:103CB00041EC180BAE48008806F040FB41EC1B0BB2
:103CC0001FED400B53EC102B51EC180B06F02EF9A6
:103CD00041EC1D0B9FEDA70B53EC102B06F06AF87F
:103CE00041EC1C0B53EC1B2B06F078FB41EC180B42
:103CF0009FEDA20B53EC102B51EC180B06F06EFA53
:103D000005D19FED9E0B02B0BDEC108B10BD20467F
:103D100006F0FDFA41EC1B0B9FED9A0B53EC102BB8
:103D200006F090FC41EC190B9FED980B53EC102B17
:103D300051EC1A0B06F0FAF841EC1D0B53EC192B61
:103D400006F080FC41EC1C0B9FED920B53EC102B0A
:103D500006F044FB41EC1B0B53EC182B06F0E6F885
:103D600041EC190B8D48B0F9000006F0D0FA41EC97
:103D70001D0B53EC192B06F031FB41EC1C0B53ECE3
:103D8000192B06F02BFB41EC1B0B9FED850B53EC25
:103D9000102B06F0CBF841EC180B8348B0F900006B
:103DA00006F0B5FA41EC1C0B53EC192B06F016FB90
:103DB00041EC1B0B1FED7D0B53EC102B06F0B6F8FE
:103DC00041EC1A0B7948B0F9000006F0A0FA41EC7A
:103DD0001D0B53EC1A2B51EC180B05F0EBFF41ECCB
:103DE0001E0B53EC1D2B05F0E5FF41EC1C0B9FED6A
:103DF000700B53EC102B06F099F841EC1B0B53ECB5
:103E0000192B05F0D7FF41EC190BB0EE490AF0EE83
:103E1000690A78E710B52DED028B84B001AB012261
:103E2000FC21762000F019FA03AB0122FB21762059
:103E300000F013FA02AB0122FA21762000F00DFA0D
:103E40009DF8080000039DF80C1040EA01109DF851
:103E5000041040EA21142046FFF795FDB0EE408A99
:103E6000F0EE608AB0EE480AF0EE680A04B0BDECED
:103E7000028B10BD10B52DED028B84B001AB012279
:103E8000F921762000F0E9F903AB0122F821762030
:103E900000F0E3F902AB0122F721762000F0DDF912
:103EA0009DF8080000039DF80C1040EA01109DF8F1
:103EB000041040EA21142046FFF716FEB0EE408AB7
:103EC000F0EE608AB0EE480AF0EE680A04B0BDEC8D
:103ED000028B10BD10B52DED0C8BB0EE408A18EEA4
:103EE000100A06F071FD41EC1D0B9FED330B53ECF6
:103EF000102B06F01BF841EC1C0B9FED311BB0EEB4
:103F00004C0AF0EE6C0A04F0BFFFB0EE40BAF0EEDF
:103F100060BA9FED180B53EC102B51EC1B0B06F005
:103F200091FB41EC1A0B9FED280B53EC102B06F084
:103F300055FA41EC190B05F00BFF08EE900AB0EEB4
:103F4000680ABDEC0C8B10BDB6000020B400002048
:103F5000000000000000F0400000000000001040E1
:103F6000B0000020B200002000000000000020414E
:103F7000AE000020000000000000F03F0000000044
:103F800000000000000000000000304100000000C0
:103F90000000B04000000000006AB840BE000020F1
:103FA000000000000000E041BC000020BA0000203A
:103FB000000000000000304000000000D0BCF840CD
:103FC0006C45D9CC955BC83F0000000040A5E5409A
:103FD0001CB50121022001F007FC4FF44070009055
:103FE00001208DF8040000208DF8060003208DF8D4
:103FF000050001208DF807006946B64801F056F922
:104000000120B5490860B549C1F8A4021CBD10B52E
:10401000B048006820F44020AE49086008460068B7
:1040200040F4802008600120AB49091D0860AB49BD
:10403000C1F8A002042000F0A5FC0020A649091D3B
:104040000860042000F09EFC0020A449C1F8A002F2
:10405000012010BD10B59F48006820F440209D4904
:1040600008600846006840F48020086000209A49F3
:1040700008609A49C1F8A402042000F083FC0120E2
:10408000954908609549C1F8A402042000F07AFC23
:1040900010BD10B500248F48006820F440208D49E1
:1040A000086008460068086001208B49091D086007
:1040B00000F068FC01208949C1F8A00200F062FC10
:1040C00007E0601CC4B2FA2C03DDFFF7C3FF002039
:1040D00010BD81487C3800680028F2D17E49086014
:1040E0000120F5E710B500207B4908607948006899
:1040F00020F44020774908600846006840F480209A
:10410000086000207549C1F8A402022000F03AFCC2
:10411000012071490860022000F034FC00206F4942
:10412000C1F8A00210BD10B500206B4908606948B5
:10413000006820F44020674908600846006840F4A1
:104140008020086001206549C1F8A402022000F027
:1041500019FC012060490860022000F013FC0020D7
:104160005E49C1F8A00210BD70B504465948006808
:1041700020F44020574908600846006840F4802039
:104180000860002054490860002517E0E009524902
:10419000091D08606006040E022000F0F3FB0120F8
:1041A0004E49C1F8A002022000F0ECFB00204A4971
:1041B0000860022000F0E6FB681CC5B2082DE5DBB4
:1041C00070BD70B500244348006820F44020414988
:1041D0000860084600680860002516E000203E4997
:1041E0000860022000F0CEFB01203C49C1F8A0028B
:1041F0006006040E38487C38006808B1601CC4B200
:10420000012000F0BFFB681CC5B2082DE6DB20468C
:1042100070BD70B504460D461646FFF7F8FE08B9A6
:10422000002070BD002141EA4401C8B2FFF79CFFA5
:10423000FFF72FFF18B9FFF70DFF0020F1E7284621
:10424000FFF792FFFFF725FF3046FFF78DFFFFF7DF
:1042500020FFFFF7FFFE0120E3E72DE9F0410546CF
:104260000F4614461E46FFF7D2FE10B90020BDE8E7
:10427000F081002141EA4501C8B2FFF775FFFFF761
:1042800008FF18B9FFF7E6FE0020F0E73846FFF711
:104290006BFFFFF7FEFEFFF7BAFE012101EB4501C0
:1042A000C8B2FFF761FFFFF7F4FE0CE0FFF789FFEC
:1042B0003070012C02D1FFF736FF01E0FFF712FF4B
:1042C000761C601EC4B2002CF0D1FFF7C3FE0120A3
:1042D000CDE7000000040240A0824042008040423E
:1042E00070B505460C46FFF792FE08B9002070BD78
:1042F0008020FFF739FFFFF7CCFE18B9FFF7AAFEC1
:104300000020F4E72846FFF72FFFFFF7C2FE204604
:10431000FFF72AFFFFF7BDFEFFF79CFE0A2000F023
:1043200079FB0120E3E770B506460C461546FFF71A
:104330006EFE08B9002070BD8020FFF715FFFFF763
:10434000A8FE18B9FFF786FE0020F4E73046FFF715
:104350000BFFFFF79EFEFFF75AFE8120FFF704FFD9
:10436000FFF797FE0CE0FFF72CFF2870012C02D11D
:10437000FFF7D9FE01E0FFF7B5FE6D1C601E84B2A9
:10438000002CF0D1FFF766FE0120D4E7F0B505461A
:104390000C46164600270021224613E0A85C414047
:1043A00008270BE001F0800020B1312080EA4100B5
:1043B000C1B201E04806010E781EC7B2002FF1DC41
:1043C000501CC2B2A0199042E8DC994201D10120F0
:1043D000F0BD0020FCE708B5002000906A460121EE
:1043E000E720FFF7A0FF9DF8000008BD10B50446C8
:1043F0002146E620FFF774FFFFF7EDFFA04201D151
:10440000012010BD0020FCE710B52DED068B82B019
:10441000002400200190FFF7FAFD20B9002002B02F
:10442000BDEC068B10BD8020FFF79EFEFFF731FE2E
:1044300018B9FFF70FFE0020F1E7F320FFF794FE15
:10444000FFF727FE142000F09DFAFFF703FE00BFE0
:10445000FFF7DDFD8120FFF787FEFFF71AFE00283A
:10446000F6D0002407E0FFF7ACFE01A90855FFF7DE
:1044700039FE601CC4B2032CF5DDFFF754FEFFF7D4
:10448000E9FD9DF804009DF8051008449DF806100C
:104490000844002831DD9DF806300222002101A8E1
:1044A000FFF774FF48B39DF805009DF8042000EB6A
:1044B00002204FF6FC72104000EE100AB8EEC00A5F
:1044C00010EE101A084606F07FFA41EC1A0B9FED29
:1044D000DD0B53EC102B05F081FF41EC190B9FED28
:1044E000DB0B53EC102B05F065FC41EC180B05F0D1
:1044F0002FFCD8490860012091E700208FE710B514
:104500002DED068B82B0002400200190FFF77FFD87
:1045100020B9002002B0BDEC068B10BD8020FFF753
:1045200023FEFFF7B6FD18B9FFF794FD0020F1E771
:10453000F520FFF719FEFFF7ACFD142000F022FA7A
:10454000FFF788FD00BFFFF762FD8120FFF70CFE3B
:10455000FFF79FFD0028F6D0002407E0FFF731FEAB
:1045600001A90855FFF7BEFD601CC4B2032CF5DDA0
:10457000FFF7D9FDFFF76EFD9DF804009DF80510CB
:1045800008449DF806100844002831DD9DF80630E7
:104590000222002101A8FFF7F9FE48B39DF80500AB
:1045A0009DF8042000EB02204FF6F072104000EE60
:1045B000100AB8EEC00A10EE101A084606F004FA07
:1045C00041EC1A0B9FEDA40B53EC102B05F006FFEA
:1045D00041EC190B9FEDA20B53EC102B05F0EAFBFD
:1045E00041EC180B05F0B4FB9F490860012091E7EE
:1045F00000208FE710B5FFF70AFD08B9002010BDB5
:104600008020FFF7B1FDFFF744FD18B9FFF722FD49
:104610000020F4E7FE20FFF7A7FDFFF73AFDFFF7C4
:1046200019FD40F2DC5000F0F5F90120E7E770B524
:1046300006460D460824FFF7EAFC08B9002070BDC5
:104640008020FFF791FDFFF724FD18B9FFF702FD69
:104650000020F4E7FA20FFF787FDFFF71AFD0F208F
:10466000FFF782FDFFF715FDFFF7D1FC08B9002029
:10467000E5E78120FFF778FDFFF70BFD18B9FFF79D
:10468000E9FC0020DBE70CE0FFF79BFD3070012C1C
:1046900002D1FFF748FD01E0FFF724FD761C601E04
:1046A000C4B2002CF0D1FFF7D5FC0624FFF7AFFC15
:1046B00008B90020C3E78020FFF756FDFFF7E9FCAB
:1046C00018B9FFF7C7FC0020B9E7FC20FFF74CFD45
:1046D000FFF7DFFCC920FFF747FDFFF7DAFCFFF724
:1046E00096FC08B90020AAE78120FFF73DFDFFF7FF
:1046F000D0FC18B9FFF7AEFC0020A0E70CE0FFF7F4
:1047000060FD2870012C02D1FFF70DFD01E0FFF7DD
:10471000E9FC6D1C601EC4B2002CF0D1FFF79AFCBE
:1047200001208CE710B551495148FFF780FF5048F0
:1047300000784F49497808444D49C97808444C49A4
:10474000097908444A49497908444949897908441A
:104750004749C979084400284FDD4548437801227C
:104760000021FFF713FE002845D04148C3780122FD
:104770000221FFF70BFE00283DD03D48437901227E
:104780000421FFF703FEA8B33948C37901220621AB
:10479000FFF7FCFD70B33548837802220021FFF754
:1047A000F5FD38B33148437902220321FFF7EEFDCE
:1047B00000B32E48C07800062C49097900EB01406F
:1047C0002B49097800EB01202949897808442949B7
:1047D00008602748007900062549897900EB0140E7
:1047E0002249097800EB01202049497808442249F0
:1047F000086008E0FFE7042010BD1C491C48FFF7D3
:1048000016FF0020F8E73A20FFF7F0FD08B101207D
:10481000F2E70220F0E710B5FFF7F6FD18B10D48FA
:1048200090ED000A10BD9FED150AFBE710B5FFF7EC
:1048300066FE18B10C4890ED000A10BD9FED0F0AFE
:10484000FBE70000D7A3703D0AF7653FCDCCCCCC89
:10485000CC6C47C0C80000200000000000405F3F53
:1048600000000000000018C0CC000020D80000208C
:10487000D0000020E0000020E40000200000000044
:104880001FB532208DF8000001208DF803000320B1
:104890008DF801008DF802004CF24F30029042F288
:1048A000CF00ADF804000020ADF80600ADF80C0014
:1048B0000121082000F0E1FF01A9224801F0BFFB1F
:1048C0004FF4A06000F0CAF9684600F0CCF901226C
:1048D00011461C4802F054F801211A4801F038FC36
:1048E0001FBD10B50121174802F061F840B316480A
:1048F000006858B11448006808B9012000E00020A1
:104900001149086000201149087015E00F4800782F
:1049100018B901200D4908700EE00C4800780128F4
:104920000AD10948006808B9012000E000200649C2
:1049300008600020054908700121024802F048F88B
:1049400010BD0000000C004098024042E80000202A
:1049500010B504466FF0040000F0D2F9E11704EB43
:104960005171C1F3C7013C4A11701046007800EB49
:104970004001C1EBC0104FF6FF7101EAC00037499A
:10498000088010BD0146344A12784A434FF0E023B4
:104990005A6100229A611A46126942F001021A61B4
:1049A00000BF4FF0E022106900F001021AB100F4DC
:1049B0008032002AF5D04FF0E022126922F0010285
:1049C0004FF0E0231A6100229A6170470146234AA2
:1049D00012884A434FF0E0235A6100229A611A4636
:1049E000126942F001021A6100BF4FF0E022106923
:1049F00000F001021AB100F48032002AF5D04FF025
:104A0000E022126922F001024FF0E0231A61002235
:104A10009A61704770B504464FF4077094FBF0F04C
:104A2000C6B24FF4077094FBF0F100FB114085B261
:104A300005E04FF40770FFF7C9FF701EC6B2002EE5
:104A4000F7D115B12846FFF7C1FF70BD00E0401E49
:104A50000028FCD170470000EA000020EC00002094
:104A600000BF704700BF694A128802F04002002A66
:104A7000F9D0C2B2654B1B1D1A80704710B588B0C3
:104A800004460121042000F0AFFE0121C80400F01B
:104A9000F4FE08220A215E4800F093FC08220B2154
:104AA0005B4800F08EFC4FF44060069002208DF8C9
:104AB0001C008DF81D0000208DF81E0001208DF8CF
:104AC0001F0006A9524800F0F1FB02944FF48050F9
:104AD000ADF80C000020ADF80E004FF48060ADF88A
:104AE00010000020ADF814000C20ADF8120002A94F
:104AF000464801F034F80121444801F0B8F8012299
:104B000040F22551414801F068F934208DF8040045
:104B100003208DF805008DF8060001208DF80700B0
:104B200001A800F0A0F808B010BD70B540F2255102
:104B3000364801F08DF9002866D0344801F0C6F8F7
:104B4000C4B23448008800F4004000285CD13148E9
:104B5000008808B96C2C03D02F4800786C2827D126
:104B60002C480088C0F30D002B490C5429480088BC
:104B7000401C2849088008460088C0F30D00022820
:104B800042DB25484078401DC5B208460088C7284A
:104B900001DD002008801F480088C0F30D00A842F6
:104BA00032D11C48008840F400401A4908802BE0AC
:104BB0001848008800F4804060B10A2C03D000201F
:104BC0001449088020E01348008840F4004011494F
:104BD000088019E00D2C06D10E48008840F4804072
:104BE0000C49088010E00B480088C0F30D000A490A
:104BF0000C5408480088401C064908800846008874
:104C0000C72801DD0020088070BD0000004C004076
:104C100000080240F4000020A40900200948804751
:104C200009480047FEE7FEE7FEE7FEE7FEE7FEE78E
:104C3000FEE7FEE7FEE7FEE704480549054A064BA6
:104C400070470000E90E000889010008D00A002022
:104C5000D0120020D00E0020D00E00203249014397
:104C6000324A1160704770B5002100230F22C478CA
:104C70001CB32E4C246804F4E064C4F5E064C4F36F
:104C80000721C1F10404E3B20A4144789C40E1B237
:104C90008478144021430C07210E254C057861557A
:104CA000047804F01F050124AC4005786D11AD00B7
:104CB00005F1E025C5F8004109E0047804F01F057E
:104CC0000124AC401B4D0678761145F8264070BD96
:104CD000194A0A400243154B1B1F1A60704739B12D
:104CE000124A121D12680243104B1B1D1A6006E087
:104CF0000E4A121D126882430C4B1B1D1A6070472E
:104D0000042808D14FF0E021096941F004014FF077
:104D1000E022116107E04FF0E021096921F0040170
:104D20004FF0E022116170470000FA050CED00E041
:104D300000E400E080E100E080FFFF1F10B50121EA
:104D4000080200F000FE00214FF4807000F0FBFD2F
:104D500010BD30B50246002000235068F84C2040BA
:104D60000D790C6844EA0524204350609068F54CA6
:104D70002040D1E903542C438D682C434D7944EAFB
:104D8000450420439060D06A20F470000C7D641EBE
:104D9000E4B2234340EA0350D06230BD00210160F9
:104DA000017141718160C16001610121017570472C
:104DB0000021E54A1168E54A1140D0E900231A4371
:104DC00083681A43C3681A431143E14AC2F80413C3
:104DD00070470021016041608160C160704721B16E
:104DE000826842F00102826003E0826822F00102E0
:104DF000826070470A4600214168D64B1940114332
:104E0000416070474162826270470A4600214168F2
:104E100021F01F0111434160704738B1CA49096848
:104E200041F40001CA4AC2F8041306E0C649096801
:104E300021F40001C64AC2F80413704738B1C249D0
:104E4000096841F48001C24AC2F8041306E0BE4971
:104E5000096821F48001BE4AC2F804137047F0B516
:104E600004460D4600200021092D11DDE068A5F162
:104E70000A0606EB4607072606FA07F18843A5F15E
:104E80000A0606EB460603FA06F10843E0600CE06A
:104E9000206905EB4507072606FA07F1884305EB6D
:104EA000450603FA06F108432061072A0FDA606B12
:104EB000561E06EB86071F2606FA07F18843561E84
:104EC00006EB860605FA06F10843606322E00D2A28
:104ED0000FDA206BD61F06EB86071F2606FA07F1AE
:104EE0008843D61F06EB860605FA06F108432063C1
:104EF00010E0E06AA2F10D0606EB86071F2606FA0F
:104F000007F18843A2F10D0606EB860605FA06F1C5
:104F10000843E062F0BD816841F0804181607047E4
:104F2000014600208A6802F080420AB1012000E0B8
:104F30000020704721B1826842F48062826003E001
:104F4000826822F480628260704721B1826842F0F8
:104F50000202826003E0826822F0020282607047EF
:104F600010B50A4600210023416821F46041531E18
:104F700041EA4331416010BD21B1426842F4006210
:104F8000426003E0426822F40062426070470146DA
:104F9000C86C80B270476C48001D0068704721B132
:104FA000826842F48072826003E0826822F4807238
:104FB0008260704721B1826842F40072826003E02F
:104FC000826822F400728260704738B15E490968D5
:104FD00041F400515E4AC2F8041306E05A490968D8
:104FE00021F400515A4AC2F804137047F0B5044640
:104FF0001546002000220026092911DDE068A1F1F4
:105000000A0707EB470C072707FA0CF29043A1F1B8
:105010000A0707EB470703FA07F21043E0600CE0CA
:10502000206901EB410C072707FA0CF2904301EBD2
:10503000410703FA07F210432061A06BC0F3015649
:10504000EF1C06F1010CA7EB0C0707EB870C1F27E1
:1050500007FA0CF29043EF1C06F1010CA7EB0C07CA
:1050600007EB870701FA07F21043A063F0BD10B504
:105070000A4600210023816B21F44011531E41EAAE
:105080000351816310BD08B5002300930090009B7D
:105090000B440093009B1A6008BD0A4600218168FA
:1050A00021F470211143816070470A460021816814
:1050B00021F44011114381607047816841F48001FF
:1050C00081607047014600208A6802F480020AB1BC
:1050D000012000E00020704721B1426842F4806264
:1050E000426003E0426822F480624260704721B16E
:1050F000426842F48052426003E0426822F48052E7
:105100004260704708B5024600200090009201F10D
:105110002800009B184400900098006880B208BDE9
:1051200010B50B460021D9B2012404FA01F11AB1DD
:1051300044680C43446002E044688C43446010BD02
:10514000FFFEFFFCFDF7FFC004230140E030FCFF41
:1051500000200140FFFD3FFF0246002013680B4086
:105160000BB1012000E000207047CA430260704785
:1051700070B502460020002300240B12556801265A
:105180008E4005EA060415681D4015B10CB10120DA
:1051900000E0002070BD00220A12D3430360704774
:1051A00010B504469848844208D10121084600F011
:1051B00086FB0021012000F082FB76E093488442C8
:1051C00008D10121022000F07AFB0021022000F02A
:1051D00076FB6AE08E48844208D10121042000F069
:1051E0006EFB0021042000F06AFB5EE089488442E7
:1051F00008D10121082000F062FB0021082000F006
:105200005EFB52E08448844208D10121102000F066
:1052100056FB0021102000F052FB46E07F488442FC
:1052200008D10121202000F04AFB0021202000F0BD
:1052300046FB3AE07A48844208D10121402000F040
:105240003EFB0021402000F03AFB2EE075488442EE
:1052500008D10121802000F032FB0021802000F0E5
:105260002EFB22E07048844208D10121801500F015
:1052700026FB0021A01500F022FB16E06B488442BB
:1052800008D10121401500F01AFB0021601500F043
:1052900016FB0AE06648844207D10121001500F0A0
:1052A0000EFB0021201500F00AFB10BDF0B50A46E8
:1052B00000210023002400BF3DE0012505FA01F391
:1052C000156805EA03049C4234D105684F000326A3
:1052D000BE40B543056015794E00B54006683543BC
:1052E00005601579012D02D01579022D16D185683A
:1052F0004F000326BE40B543856055794E00B5404A
:10530000866835438560456801268E40B543456013
:10531000456896798E40B6B235434560C5684F0002
:105320000326BE40B543C560D5794E00B540C6687A
:105330003543C560491C1029BFD3F0BD4FF6FF713E
:1053400001600021017141718171C171704708B51F
:105350004FF480320092009A0A430092009AC26190
:10536000C161009AC261C2690092C269009208BD1F
:105370000246002013690B400BB1012000E0002021
:1053800070470146086980B27047024600205369A1
:105390000B400BB1012000E0002070470146486936
:1053A00080B2704701837047418370470AB101831F
:1053B00000E0418370474161704742694A40426161
:1053C0007047F0B5002300244D07ED0E02FA05F3F7
:1053D000CE1000F1200555F826504E07F70E0F2687
:1053E000BE40B543CF1000F1200646F82750CE103E
:1053F00000F1200555F8265045EA0304CE1000F1CF
:10540000200545F82640F0BD00000240000402409F
:1054100000080240000C024000100240001402404C
:1054200000180240001C02400020024000240240FC
:1054300000280240F948006840F00100F749086080
:105440000020F64908310860F4480068F449084033
:10545000F2490860F348091D0860F348EF498431B8
:105460000860F0481038091D0860EC48006820F416
:105470008020EA4908600020E8490C310860E749CB
:105480008C31086070470021E44A921C117011466B
:105490000870704710B501460022002300204A1111
:1054A000012A02D1DD4C236808E0022A03D1DB4C3B
:1054B0007034236802E0D94C7434236801F01F0271
:1054C000012494401C400CB1012000E0002010BDDC
:1054D00038B5002000900024002500BF3120FFF7E0
:1054E000D9FF05460098401C00900098B0F5A04FE9
:1054F00001D0002DF2D03120FFF7CCFF08B10124FC
:1055000000E00024204638BD01460020C34A106850
:1055100020F0F80040EAC10010607047C3490860FD
:1055200070470021BD4A703211701170012802D0FD
:1055300004280AD104E00121B84A7032117005E054
:105540000521B64A7032117000E000BF00BF7047FD
:10555000B7490860704770B5049C41EA821501267E
:10556000C6EB530645EA0645054345EA0465AB4EDE
:10557000361D356070BDAD4908667047820142EA4C
:105580000172A64B84331A607047A8498866704739
:1055900010B5830143EA016343EA02739F4C8834E8
:1055A000236010BDA14908677047A049C8647047CF
:1055B00002460020994B0833186820F0EC6042EA5C
:1055C00001031843954B08331860704702460020CA
:1055D000924B0833186820F0784042EA01031843E0
:1055E0008E4B083318607047014600208B4A083202
:1055F000106820F0030008431060704787480830A7
:10560000006800F00C00704701460020834A083211
:10561000106820F0F0000843106070470146002039
:105620007E4A0832106820F4E0500843106070474A
:1056300001460020794A0832106820F4604040EAB0
:10564000C10010607047F0B500210022002402253F
:1056500000260223714F08373F6807F00C0121B183
:10566000042905D0082937D105E0724F076036E0DC
:10567000714F076033E0694F3F1D3F68C7F38056A5
:10568000664F3F1D3F6807F03F036EB16A4FB7FB9F
:10569000F3F7DFF888C10CF1040CDCF800C0CCF3A0
:1056A000881C07FB0CF40CE0624FB7FBF3F7DFF844
:1056B0006CC10CF1040CDCF800C0CCF3881C07FBB7
:1056C0000CF4564F3F1D3F68C7F301477F1C7D0018
:1056D000B4FBF5F7076002E0564F076000BF00BF5C
:1056E0004E4F08373F6807F0F0010909534F7A5CC5
:1056F0000768D7404760494F08373F6807F4E051D3
:10570000890A4E4F7A5C4768D7408760434F083715
:105710003F6807F46041490B484F7A5C4768D740BF
:10572000C760F0BD002100F44072B2F5407F0AD19D
:105730003A4A0832116821F4F811414A02401143F3
:10574000364A08321160354A70321268C0F30B03D2
:105750001A43324B70331A60704735494439086038
:1057600070473349403908607047364908607047D0
:1057700001460020294A8C32106820F01F004A1E82
:105780001043264A8C321060704701460020234A9D
:105790008C32106820F4F8504A1E40EA02201F4A5A
:1057A0008C3210607047014600201C4A8C32106811
:1057B00020F4401008431060704701460020174A4B
:1057C0008C32106820F44000084310607047014696
:1057D0000020124A8C32106820F4403008431060D8
:1057E000704719490860704739B10C4A3032126865
:1057F00002430A4B30331A6006E0084A303212681E
:105800008243064B30331A607047F9B1034A343291
:1058100012680243014B34331A601CE00038024026
:10582000FFFFF6EA1030002400300020000047425D
:10583000800E47420024F40000127A00F600002097
:10584000FFFCFF0F5C014742E01147428F4A12689C
:1058500082438E4B1A60704739B18C4A121D126810
:1058600002438A4B1B1D1A6006E0884A121D12680B
:105870008243864B1B1D1A60704739B1834A0C3234
:1058800012680243814B0C331A6006E07F4A0C32E7
:10589000126882437D4B0C331A60704739B17B4AE2
:1058A000103212680243794B10331A6006E0774ACF
:1058B000103212688243754B10331A60704739B149
:1058C000724A243A12680243704B243B1A6006E085
:1058D0006E4A243A126882436C4B243B1A6070472C
:1058E00039B16A4A203A12680243684B203B1A6079
:1058F00006E0664A203A12688243644B203B1A60F5
:10590000704739B1614A1C3A126802435F4B1C3B35
:105910001A6006E05D4A1C3A126882435B4B1C3BEE
:105920001A60704739B1594A143A12680243574B0A
:10593000143B1A6006E0554A143A12688243534BEE
:10594000143B1A60704739B1504A103A126802434A
:105950004E4B103B1A6006E04C4A103A12688243E4
:105960004A4B103B1A60704739B1484A1C321268E2
:105970000243464B1C331A6006E0444A1C3212684C
:105980008243424B1C331A60704739B13F4A203280
:10599000126802433D4B20331A6006E03B4A203236
:1059A00012688243394B20331A60704739B1374A45
:1059B000243212680243354B24331A6006E0334A1E
:1059C000243212688243314B24331A60704739B154
:1059D0002E4A2C32126802432C4B2C331A6006E0FC
:1059E0002A4A2C3212688243284B2C331A607047A3
:1059F00039B1264A303212680243244B30331A60E0
:105A000006E0224A303212688243204B30331A605B
:105A10007047012808D11D493C31096841F008014F
:105A20001A4A3C32116007E018493C31096821F0FC
:105A30000801164A3C321160704739B1134A273ABF
:105A400012780243114B273B1A7006E00F4A273A9F
:105A5000127882430D4B273B1A7070470B48403039
:105A6000006840F080700949403108607047014685
:105A70000020064A283A12680A400AB1012000E0D4
:105A800000207047014926390870704734380240B9
:105A900010B50446FA48844208D101211020FFF7CE
:105AA00052FF00211020FFF74EFF57E0F5488442D7
:105AB00009D101214804FFF735FF00214FF40030E0
:105AC000FFF730FF4AE0F048844209D10121880401
:105AD000FFF728FF00214FF48020FFF723FF3DE070
